:10000000002C0020192900001529000015290000E6
:1000100000000000000000000000000000000000E0
:100020000000000000000000000000001529000092
:100030000000000000000000152900001529000044
:10004000152900001529000015290000890E00005F
:10005000152900001529000015290000711F000056
:100060001529000015290000152900001529000098
:100070001529000015290000152900001529000088
:100080001529000015290000152900001529000078
:100090001529000015290000152900001529000068
:1000A0001529000015290000152900001529000058
:1000B00010B5064C2378002B07D1054B002B02D03E
:1000C000044800E000BF0123237010BD1C01002084
:1000D0000000000020340000084B10B5002B03D0B6
:1000E0000749084800E000BF07480368002B00D11B
:1000F00010BD064B002BFBD09847F9E7000000002D
:100100002001002020340000203400000000000006
:10011000EFF3108072B6BFF35F8F0022024B1A70AC
:10012000434258417047C04614010020024A1378E8
:10013000013BDBB21370704743010020044A13787F
:10014000013BDBB2137013780022024B1A70704728
:10015000440100203A010020002070470020704731
:100160000020A12210B50E4B0E4C0F4920701880B4
:100170000E4B08711A70813A5A701E3A5880988056
:10018000DA801881E1235B020B60082348718B71D0
:10019000074B9847237801200133DBB2237010BD51
:1001A000D2030020430100203C010020640600200F
:1001B0005130000010B502490020024B984710BD95
:1001C0003C01002051300000002805D00122034BE3
:1001D0001A70BFF35F8F62B67047C04614010020EB
:1001E0006021124B1A7850B20A4000280DDA002024
:1001F000202A13D15A78212A10D1DA88072A0DD162
:100200000B499A819960012008E00020202A05D13D
:100210005A78202A03D0223A504250417047DA8857
:10022000072AFBD103491961EAE7C046700900209B
:100230003C010020B5010000F7B5364B1B78002BC0
:1002400023D1354B9847354E354B3488002800D0A4
:10025000344B9847844218D0334B9847334B344A39
:100260001C780700E4B263009B5A002B16D1314D75
:100270002B8801332B80284B9847002806D12B88E8
:10028000632B03D838002C4B9847F7BD224B984777
:10029000002803D0294B2A889A42F3D90022254B03
:1002A0001A80274B1B7893422DD1634263411F4A2A
:1002B000DBB213700123174A380013701E4B9847A6
:1002C0001B4B6700DB5B1D00413DFF3D6A1E9541F6
:1002D000A022EDB25200934219D00F4B9847114B18
:1002E000002800D10E4B98473080A0225200544382
:1002F00014490F4B144ADB5B12190091134C29006F
:100300008120A047C1E762425441E4B2D2E7002312
:100310003380EAE760060020E51400005E06002056
:10032000E9140000F9140000110100005C0600202F
:100330005806002038010020C90100001F030000FA
:10034000D40300205D030000D803002079170000CB
:1003500010B5014B984710BD3902000010B50028B8
:100360000CD1074B1B785A425341064A5B00985206
:10037000054B1870054B1870054B984710BDC046CB
:100380005C06002058060020D403002060060020F0
:100390003902000010B5074B9847074B07491A88E8
:1003A000074B1B785B005C5A064BA41A9847200049
:1003B00010BDC04611010000CE030020C80300207C
:1003C000CC030020C901000010B5034B9847431E21
:1003D0009841C0B210BDC04695030000F7B5184B58
:1003E00098471849184A0C781578E4B2EDB2002DF8
:1003F00008D16700BC46154B154F1E886346DF5B6E
:10040000B74203D9134B98470020FEBD0F4B1D8008
:10041000634263410126DBB20B700E4B16709847A6
:1004200028000D4B9847A0235B005C430B4A31002A
:1004300014190B4A0220009222000A4CA047E4E75C
:1004400011010000CC030020D0030020CE030020C7
:10045000C8030020C9010000C903000048010020B2
:10046000ED0400007917000070B50024124B134D05
:100470002C701C70124B1C70124B1C70124B1C8089
:100480005C80124B1C80124B9847124B1C70124B15
:100490001C70124B1C80124B1C80124B9847A042C0
:1004A00009D02B780133DBB22B702B78DBB2012B18
:1004B00001D10D4A137070BD600600204401002078
:1004C000D40300205C060020580600205E060020B1
:1004D00039020000D0030020CC030020C803002014
:1004E000CE030020DD0300003A01002013B5030015
:1004F0001000002B10D10D4A127854426241D2B242
:1005000000290AD14133FF335A430949094C8A185B
:10051000094900910121A04713BD0848520011521A
:10052000074A1370074B9847F6E7C046CC030020F4
:100530004801002079170000ED040000C8030020E6
:10054000D0030020DD03000010B50020014B9847C8
:1005500010BDC046C9030000F7B5194B00269B79B2
:10056000093B5A425341DBB20193164B9847164B55
:10057000164F3C881D78164B9847EDB2154B6A0014
:10058000D35AA4B2A34207D8134B1B78DBB2002B7B
:10059000EBD11E003000FEBDA0235B005D430F4B7E
:1005A0005D192B5D01341E43A4B20D4B3C8098476E
:1005B000019B002BEED0002336020193D5E7C04605
:1005C0003C01002011010000CC030020CE030020DC
:1005D000C9010000C80300203A01002048010020A2
:1005E000DD03000070B5114B98471149114A0B7893
:1005F000DBB25C00A45AA022520094420FD10E4AF2
:100600001278002A0BD10D4D2A78D2B2002A06D1D9
:1006100001242C705C4263411400DBB20B70084B68
:100620009847A0204000001B70BDC046110100008B
:100630005C0600205806002060060020D40300203D
:10064000C901000010B5034B9847431E9841C0B242
:1006500010BDC046E505000010B50020014B9847CD
:1006600010BDC04645060000F8B5154B0D009C793D
:10067000093C63425C41E4B20020124B98470028D9
:1006800005D1114B1878C0B20028F5D1F8BD0F4B39
:1006900098470F4B0F4A1B78DBB25F00B95A4E1CCC
:1006A000BE52A022520053430B4AD3185D540B4B49
:1006B0009847002C02D02D120024DDE70120E5E749
:1006C0003C010020450600003A0100201101000015
:1006D0005C06002058060020D8030020C901000055
:1006E00010B50100014B0020984710BD69060000BD
:1006F00010B5034B58887F231840024B984710BD14
:1007000070090020F1180000F0B5164B1B78002B83
:1007100001D10020F0BD144B1B681B681A7982427E
:10072000F7D9124C01262360DA789D7812022A4309
:1007300000259A189A4203D8002DEAD02360E8E7F2
:100740005F78042F0AD19F78874207D1DF788F42E4
:1007500004D1002D00D023600120DBE71D785B1958
:100760003500E7E7730600207406002078060020B5
:10077000094B1B681B68DA78997812020A439B18A8
:1007800002788018984201D3002004E04278042ABD
:10079000FAD0052AF4D170477406002070B5104BCA
:1007A00005009847002801D1002070BD0D4B1C6842
:1007B00020000D4B9847041E0AD04279037912029B
:1007C0001A43C178094B807898470028F0D1EBE7AD
:1007D000074BAD001B685B68EB581B689847E4E764
:1007E0000907000078060020710700005D15000071
:1007F0007406002070B50021104D0400A8470028A1
:1008000002D10025280070BD0D4BA2001B685B685B
:10081000D658F368984701002000A847051EF0D07D
:10082000084B1C682000084B9847041E03D08078B2
:10083000064B9847F6E773689847E3E70907000017
:1008400074060020780600207107000009150000DA
:1008500010B5014B984710BDBD19000070B50B4D88
:1008600000242B78002B0AD1002301222B70084B87
:100870001A8070BD2000074B98470134E4B2064B44
:100880001B681B681B79A342F4D8EDE773060020B0
:100890006E060020F50700007406002010B5024B1C
:1008A0009847024B984710BD251A00005D080000CC
:1008B00010B50B4B00241B78002B09D110BD5B68D1
:1008C000A200D3581B69002B00D098470134E4B232
:1008D000044B1B681A681279A242F0D8EEE7C046B2
:1008E0007306002074060020F8B50023AA4CA381EB
:1008F00023616361237858B2002805DAE288002A70
:1009000002D100252800F8BD6021194020D11F2206
:10091000002800DBCCE0E588002D19D0134000D082
:100920008CE06378062B0CD0082B00D17FE0002BE5
:100930000ED1022D12D129009848994B98470125D4
:10094000E0E76088050A022D3DD029D8012D34D07A
:100950001F2223781340012B00D166E11F22237848
:100960001340022BCDD18F4B00241B78002BC8D015
:100970008D4B1B681A681279A242C2D95B68A2002B
:10098000D558EB689847894B01002000984700280C
:10099000B7D0AB6898470028D1D10134E4B2E7E77B
:1009A000032D27D00F2DD3D1814B98680028D5D0A7
:1009B000C17883780902194302E07D4B18680178F9
:1009C000774B984710E07A4BC0B21A68527C82424B
:1009D000C4D95B68C000C058C17883780902194344
:1009E0006F4B9847A3685D70E388A2899A42A6D9A5
:1009F000A381A4E7C0B20328AAD802F03FFB1500E8
:100A00003B0104003E010A216A4A00236A485D0056
:100A1000D65C451901336E80DDB2A942F7D8490092
:100A20000231017089B2CBE704216448C8E7012D87
:100A300094D129005B485A4B984763E7012B22D198
:100A400063780A2B84D1012D00D0EEE0554B1B7842
:100A5000002B00D1E9E0544B26791F683B681B79D5
:100A6000B34200D8E1E03000504B9847051E00D15A
:100A70006EE77B68B600F358DB689847504B01215E
:100A800018701800D7E7022B00D061E76378002BBD
:100A900000D05DE7022D00D060E74A4B20799847EF
:100AA000494B2900188018003D4B9847013D29E724
:100AB000134053D160780138082800D948E702F084
:100AC000D3FA100047FF47FF47FF090047FF47FFE2
:100AD00047FF1E00E388002B00D03FE73B4B23611C
:100AE0002DE7E388002B00D038E76588012D00D082
:100AF00034E70221294A13888B43138002E7E588F3
:100B0000002D00D02AE7324B9847002800D11FE77C
:100B1000274FA2783B685B7C9A4200DD18E72D4B9B
:100B20009847A3781F4A1370002B00D107E72A4A81
:100B30001D4E9B187A68DB00D318336033681B683E
:100B40001B79AB4200D8FAE600212800234B9847D6
:100B5000002800D1FCE60135EDB2EFE7012B41D1D1
:100B600063780B2B00D0F3E6E388002B5DD10D4BAF
:100B70001B78002B59D02679194B3000658898478F
:100B8000002800D1E4E6E9B23000144B9847002871
:100B900000D0D4E6DCE6C046700900206E060020D6
:100BA00011190000730600207406002009070000D8
:100BB000940000208600002028000020640000200F
:100BC000720600202916000070060020F1060000C1
:100BD000011900005D080000FFFFFF1F9D070000D6
:100BE000F5070000022B00D0B2E66378012B10D08D
:100BF000032B00D0ACE6E388002B00D0AEE6638880
:100C0000002B00D0AAE620791D4B984720791D4B78
:100C100009E0E388002B00D0A0E66388002B00D019
:100C20009CE62079184B9847B1E7184B1B78002BAE
:100C300000D193E6164B25791E6833681B79AB42C9
:100C400000D88BE600212800124FB847002800D1B9
:100C500084E67368AA00D658F36898470100280014
:100C6000B847002800D179E6B3689847002800D03B
:100C700065E673E61D21084AC7E60421074AC4E673
:100C8000A91400003D1600003D1700007306002067
:100C9000740600200907000068000020E633000009
:100CA0000368987AC0097047082270B504000B4B9E
:100CB0000568DA6720000A4EB0470028FAD1022200
:100CC0002B8893432B80207560752000B047002847
:100CD000FBD101232A8813432B8070BD04E100E07F
:100CE000A10C0000F8B507000E00140005683800DC
:100CF0000F4B98470028FAD13A79002A0BD01A23D3
:100D0000012A06D11723012C03D803000634A400BE
:100D100066511800F8BD1723022CFAD805498E42F7
:100D2000F7D80C34B6B2640066531300F1E7C0463E
:100D3000A10C0000FFFF00002023F7B515002C4A8E
:100D40000160916904000B439361022301A90B70B8
:100D50000420284B98470420274B9847274B200016
:100D60009847AB7823712B796371254B1C602B88D6
:100D700026683380AB78002B1FD01720012B1BD1A6
:100D800033889BB23380EB78002B03D080233288EA
:100D90001343338020001B4B9847021EFAD1A968E9
:100DA0002000194B984700202B79834204D08023E0
:100DB0007288DB0113437380FEBD04233288172041
:100DC00013433380EB78002BF6D120000D4B98476E
:100DD000021EFAD1A96820000B4FB8472000094B2A
:100DE00098470028FAD10122E9682000B847DAE7DD
:100DF00000040040E927000035280000A90C00008D
:100E000044070020A10C0000E50C000070B5037938
:100E100004000D001520002B06D126682000034B8E
:100E200098470028FAD1B58270BDC046A10C0000D9
:100E3000022A07D00379002B0FD0012B0FD11633D4
:100E4000012A0DD8931C9B00195001239340017D6A
:100E50000B43DBB20375002302E0022AF2D9172309
:100E60001800704710B502688023022903D00123BF
:100E700003248B402340D37101238B40427D1343D5
:100E8000DBB2437510BD000070B5114B1B68597D76
:100E90001C681A7D207A0A40E179014048B2002896
:100EA00006DA520701D51B6998478023237270BD6B
:100EB0000125294205D02A4201D09B689847257216
:100EC000F5E702252942F2D02A42F8D0DB68F5E79F
:100ED00044070020EFF3108072B6BFF35F8F00224B
:100EE000024B1A70434258417047C046140100201B
:100EF0000F2303405B00C009181814230238434332
:100F00000148C0187047C04684060020F0B58D79AE
:100F100085B06AB20E00544B2800002A48DA0F2729
:100F200098472F400197038A816802937688C368A7
:100F30000400F618C660877C8E4225D08D1B4B4B73
:100F4000ADB29D4206D918000299494B9847474BCC
:100F50005D1AADB20021BB0707D5464B02992800A8
:100F600098478BB259425941C9B20222A37C490029
:100F7000934319432B006268A174921901993E486A
:100F80003E4CA04705B0F0BD02233800184005D004
:100F900062689F43A77492190023EFE701239F43E0
:100FA0002368A774002BEDD02A0031009847E9E7A9
:100FB00098470F232B400293038A04000193837CFC
:100FC00037885B0711D5C26843689446634403932E
:100FD0000199284B80689847029B0A00013B2849E9
:100FE0009B0159180398274B9847E368FA18A368A0
:100FF000E2609A4200D9E360B288BA4227D1E6683B
:10100000B34224D09D1B194FADB20199BD4216D9F0
:10101000174B380098477B1A019A9BB216481A4F13
:101020009A4211D90423A27C1343A374029B5A1E33
:10103000134B9201D218019B0299B847A2E70D4BBE
:10104000280098476B1AE7E762689219F4E70122D3
:10105000A37C9343A3742368002B00D192E72A005A
:10106000E1680020A2E7C046F10E0000FF1F00006B
:10107000713300009D31000008080020991E000017
:1010800048070020C5330000E51E0000052210B50A
:10109000054B064C1A7020008021054B9847002113
:1010A0002000044B984710BD82060020080800204D
:1010B0001F1E0000391E000037B504001D4B984765
:1010C0008023226801AD937228001B4B98470323AD
:1010D00029006B702000194B984719492000194BC3
:1010E0009847194D194B022200212000A8470022E1
:1010F000174B11002000A847164B012200212000A9
:10110000A847154D022200212000A84700222000F8
:101110001100A847012200212000A84721680F4A9A
:101120000B891A408023DB00134300220B810C4BF8
:101130001A7037BD5D080000351C0000451C00001A
:10114000880900202D1F0000CD1A0000C9120000E0
:1011500069160000A11100001D1B0000FFF3FFFF36
:1011600082060020032210B5074B084C1A7008496C
:101170002000084B98470023074A19009268200076
:10118000064CA04710BDC04682060020080800207B
:10119000880900202D1F000070090020991E000002
:1011A00010B589790C4B4AB2002A0BDA1B78012B57
:1011B00002D10A4B984710BD042BFCD10848094BBB
:1011C0009847F8E71A78022A02D102321A70F2E739
:1011D000032AF0D1F2E7C046820600206511000024
:1011E000080800201F1E000070B51D4D1D4E2B88E5
:1011F000B489E41AA4B2002C1BD11B4A11885B18D5
:101200009BB21380F2889A4203D0184B1B78002BB4
:1012100007D00422164B17491A701748174B9847E6
:1012200070BD7369002B16D09847002813D02C800E
:10123000B4893F2C0FD9002240240C4B1A702B8804
:10124000B2680021D2180C4823000D4EB0472B88FD
:10125000E4182C80E4E70122044B1A70EFE7C04643
:101260007E06002070090020800600207C060020F9
:101270008206002088090020080800202D1F000099
:10128000991E000010B5014B984710BDB108000031
:101290000122034B1A70BFF35F8F62B67047C046DE
:1012A00014010020074B9A8C920605D4D021DA68ED
:1012B0000A40D02AFBD170471022D9681142FCD0D5
:1012C000F9E7C0460008004070B5274E0C0033789F
:1012D000002B06D0254B1B69002B00D0984700231C
:1012E00033702388082B02D0214B984770BD214CC6
:1012F0001E4D23782B7063786B70E278A37812020E
:101300009B186B806279237912029B18AB80E2797B
:10131000A37912029B18EB80174B98470028E3D063
:101320002B787F2B0DD90021144B22001980144BF0
:10133000144819800223144C33703E33A047134BDA
:10134000D3E7EB88002B01D1114BCEE700210B4BEB
:10135000220019800A4B0C4C198001230948337074
:101360003F33A047C2E7C046820600207009002034
:101370008D10000088090020E90800008006002088
:101380007E06002008080020E51E0000E91100008C
:10139000651100000023F7B501AC237003336370BF
:1013A000013BA370013BE370104B05001E788642A1
:1013B0001BD000280AD00E4B275C98470D4AD35DFE
:1013C0000133D355002801D00B4B9847002E0AD08B
:1013D000074BA45D9847074A135D013B135500284E
:1013E00001D0054B9847014B1D70F7BDFC0600204E
:1013F000D50E00003C0700209112000070B5084C8B
:10140000084D06212000A84704212000A8470221FA
:101410002000054B98470220044B984770BDC046FA
:1014200008080020B11A0000911A0000951300006E
:1014300070B50B4B98470B4C0B4B02212000984783
:101440000A4D04212000A847094A0A4B0621200022
:10145000984706212000A8470320074B984770BDF6
:10146000A512000008080020B11A0000911A00001F
:10147000FD1300006D1A00009513000010B5064C16
:1014800004212000054B984702212000044B984777
:101490000120044B984710BD08080020B11A000035
:1014A000911A00009513000070B5040001000A4B6A
:1014B0000A4898470A4B200098470300827C012085
:1014C000024207D01D6882439A74002D02D0220088
:1014D000D968A84770BDC046D51D00000808002087
:1014E000F10E000000207047024B1B68188A800430
:1014F000400D704708080020024B1B68188A80B214
:101500007047C04608080020F7B50400002701AD69
:1015100028000C4B984720000B4B98470B4E290096
:1015200030000B4BEF702C7098470F213A00214090
:101530003000084B98473A0030002100064B98478E
:10154000F7BDC046351C0000A914000008080020A3
:10155000451C0000F51A0000A91B0000F7B50600A5
:1015600001AC294B20000F0015009847267000237E
:10157000082D10D90123102D0DD90223202D0AD9B1
:101580000323402D07D90423802D04D980235B0039
:101590009D4224D8FB3B637030001C4B98470323CB
:1015A00005821F40012F28D1013B194DE370210016
:1015B0002800184B9847041E1BD10F21164B020020
:1015C00031402800154FB84722003100144C280044
:1015D000A047012231002800A04701200AE0802313
:1015E0009B009D4202D8FB3BFF3BD4E70D4B9D4245
:1015F00001D90020FEBD0723CDE7022FD5D0032F50
:10160000F7D10423D1E7C046351C0000F10E0000DD
:1016100008080020451C00000D0F0000CD1A000036
:101620001D1B0000FF03000010B50100014B024824
:10163000984710BD011E0000080800200F2310B5B8
:10164000034004000020032B07D821000348044B6B
:1016500098472000034B9847012010BD0808002040
:101660001F1E0000A9140000F8B5294F3B78012B7C
:1016700041D1284A284D0E881488AB89A21993427B
:1016800001DA1E1BB6B2AB68320018192349244B8D
:10169000A4199847A3B21F4C2380402E05D1214E98
:1016A000E9883288D21891420FDCAB816B69002B3C
:1016B00008D09847002805D1052300203B701A4B1D
:1016C0009847F8BD194B9847FBE7AA899A420BD176
:1016D0006B69002BF0D098470028EDD03388228822
:1016E0009B1833800023238040230C4A0021104C98
:1016F0001048A047E5E7022B01D10F4BE3E7064B6B
:101700001B69002B00D0984700233B70D9E7C046E7
:10171000820600207E060020700900208809002033
:10172000C5330000800600203D1600006511000052
:10173000E51E000008080020E91100000F2370B525
:10174000034006000024032B0ED8084B98470500E1
:10175000074B310007489847AB7C0134234203D044
:10176000A343AB742B689847200070BDF10E0000B6
:10177000391E000008080020F0B585B003921E0055
:1017800002000F231A4002900D000192032A03D990
:101790000027380005B0F0BD02984A4B9847071E55
:1017A000F6D1494B029898470400484B98470123CB
:1017B000A27C1A4204D00028EAD0454B9847E8E7BB
:1017C0001343A374002801D0414B9847039B022286
:1017D00063600023E3600A9BA660236001231D4031
:1017E0006900A57C95430D4304218D436946097A20
:1017F000A57449B200293BDAEDB2002E26D0354B54
:10180000B6B29E4206D91800218A334B9847314B15
:101810005E1AB6B2AB0707D5218A30002F4B984726
:1018200089B248424841C7B20120022338404100F2
:10183000A07C98430843A0743300039A0199284878
:10184000284CA04743425841C7B2A2E7154202D0F4
:101850009543A574F0E79D43A5740A9B002B01D125
:10186000012796E70021029A08000A9B9847F7E7AC
:10187000002E22D0278A174DB6B23900AE4216D9B3
:10188000154B280098476B1A9BB21548164D039AC2
:10189000BB4209D20423A27C1343A374019B5A1EAA
:1018A000124B9201D2183B000199A847CAE73000B9
:1018B0000A4B9847761AB3B2E7E7A27C9A43A27420
:1018C000CBE7C04629160000F10E0000D50E00003F
:1018D00091120000FF1F0000713300009D310000D5
:1018E00008080020991E0000E51E0000480700209F
:1018F0008022024B10431B68987270470808002032
:10190000024B1B68987A4006400E7047080800207A
:10191000014B98609981704770090020012010B533
:10192000034B1A68138903431381024B984710BD78
:101930000808002095130000F8B501270320164B76
:101940009847164C164E2268042113892000BB4389
:101950001381144AB047144A00212000B0473900CF
:10196000124A2000B047124A02212000B047114D10
:1019700004212000A84700212000A84739002000AA
:10198000A84702212000A8470B4A06212000B047A3
:1019900006212000A847F8BD951300000808002084
:1019A0006D1A00007D14000085120000B9100000BF
:1019B00031140000911A0000FD13000073B50F4BA5
:1019C000984701AC06000E4B2000984700230D4DB0
:1019D00022000D49A37028000C4B984728000C4B9F
:1019E00098470C4B98470C4B012098470B4B984756
:1019F000002E01D00A4B984773BDC046D50E00009B
:101A00007D21000008080020005000418D210000C9
:101A10005D1F0000A5120000951300003919000099
:101A20009112000010B5074B98470020064B9847CD
:101A3000064B9847064B04009847002C01D0054BF5
:101A4000984710BD1D19000095130000D50E000029
:101A5000591A000091120000034B1A78002A01D095
:101A600000221A707047C046FD0600200B002E337E
:101A70009B0010B51A50AA22044C52004900835A08
:101A8000095B0B438352002010BDC046EC330000BD
:101A9000064B4900CB5AAB21026849009383425A56
:101AA0001A4342520268002013837047EC3300004F
:101AB000054B4900CA5AAB214900435A934343524C
:101AC000036800209A827047EC33000010B58C0048
:101AD000A4183434A4000419401859300449636030
:101AE000FF3003788A5C13430370002010BDC046AA
:101AF000FA3300008B009B18343310B59B000400B0
:101B0000C3180020641858605934034BFF349A5CA2
:101B100023789343237010BDFA3300000F2370B570
:101B20000B40C41861341F4EFF342578B65C354332
:101B30002570002A0FD10268002B03D1FF32033336
:101B4000937221E05B01D21849B2FF3202230029CF
:101B5000F6DB0123F4E7012A0ED10268002B02D143
:101B6000FF320C33ECE75B01D21849B2FF32082395
:101B70000029E5DB0423E3E7022A07D102685B01C1
:101B8000D3181022FF339A72002070BD032AFBD1B4
:101B900002685B01D21849B2FF3240230029CFDB33
:101BA0002023CDE7FA3300000F2370B50B40C41893
:101BB0001F4D6134FF34AE5C2578B5432570002A93
:101BC0000FD10268002B03D1FF320333537221E09F
:101BD0005B01D21849B2FF3202230029F6DB012350
:101BE000F4E7012A0ED10268002B02D1FF320C3338
:101BF000ECE75B01D21849B2FF3208230029E5DB8C
:101C00000423E3E7022A07D102685B01D3181022FC
:101C1000FF335A72002070BD032AFBD102685B01BA
:101C2000D21849B2FF3240230029CFDB2023CDE771
:101C3000FA33000000230370437083700133C370D4
:101C4000704700000F23F0B504000D78C8782B40D2
:101C50006DB2042860D8226801F0FCF903084987B6
:101C60009D00002008335B01D054F0BD5E01921945
:101C7000FF3255781C206D07F7D1702557782F4219
:101C8000F3D10B385070226808335B01D2182F3023
:101C900050712268D31880221A718A784B4B002A1F
:101CA0001BD080209A19546800060443546054697C
:101CB0002043506107254A789B195868444C2A40B4
:101CC000120720401043586049785A692940090793
:101CD00022400A435A610020C7E79819426852001F
:101CE000520842604269520052084261E2E75801DC
:101CF0001218FF32002D27DA702657781C20374241
:101D0000B3D1567804303043507018002268083040
:101D100040011218802010710724ED0F5B002B4A40
:101D20005B1948781B01D3185A682040284C0007DB
:101D3000224002435A608878002842D080225968A5
:101D400012060A435A60C6E756781C20760700D070
:101D50008BE756781A3830435070180022680830E4
:101D60004001121840205071D6E758011218FF3276
:101D7000002D08DA702657781C20374200D074E70F
:101D800056781430BFE756781C20760700D06CE7F1
:101D900056781938DFE758011218FF32002D08DA9B
:101DA000702657781C20374200D05EE756782430E2
:101DB000A9E756781C20760700D056E756781838E1
:101DC000C9E75A68520052085A604EE7C809002015
:101DD000FFFFFF8F0F230B40026808335B0149B2FE
:101DE000D218002906DA802111710268D318022264
:101DF000DA717047402151710268D3180122F7E768
:101E00000F230B40006808335B01C31849B298796F
:101E1000002902DA8006C00F7047C006FBE70F23D7
:101E20000B40006808335B0149B2C3182022002927
:101E300000DB10225A7170470F2330B50B40026847
:101E40005C011219FF3249B2D579002912DA20213A
:101E50000D420ED05171026849181219FF32147ADE
:101E60000C4206D01172026808335B01D3180222BB
:101E70001A7130BD10210D42FBD051710268491812
:101E80001219FF32147A0C42F3D01172026808332F
:101E90005B01D3180122EBE770B50C00056808342C
:101EA0006401655D1C266D066D0F14D04D010B4954
:101EB0009B0449190D000A614A69094900260A4034
:101EC0006A616A69990C930B9B030B436B6103680E
:101ED0001C1980236371300070BDC046C809002002
:101EE000FF3F00F070B50C00056808346401655DC3
:101EF0001C266D0713D00B4D49014A519B046918EC
:101F00004A681D09084B002613402B434B604B6861
:101F10009B0B9B034B6003681C194023237130000B
:101F200070BDC046C8090020FF3F00F0094B196092
:101F30005A6809491140802292020A435A605A683D
:101F4000920B92035A60402203680020FF335A71BB
:101F50007047C046C8090020FF3F00F00223026816
:101F600011780B43137002689378022BFCD07047F2
:101F7000F7B57D4E306802681378DB092ED1148CDA
:101F8000A1B28C4600292AD180270C005733FF3399
:101F9000958BC25A023BC35AADB213402B400093FB
:101FA0007F00724B6200D35A2B4202D03268126813
:101FB0009383009A13420ED06D49062C04D16D4BC9
:101FC0001B891B093B400B60230032682E339B00AA
:101FD0009B58100098470134072CE2D1F7BD070049
:101FE0005937FF37614601241941DDB2214200D142
:101FF000B4E01C00083461015118CE1DC979019666
:102000003E7A0094C9B23C780E40264060242142BA
:102010001BD0590152184021FF32147A0C420ED0C5
:102020001172802252421543534A95716022164222
:10203000D4D01B01C318E0331B684F491CE020219A
:10204000147A0C42F2D01172EEE71024214215D01E
:10205000019A1470C2186132FF3212782242BDD048
:10206000444A5901521852681B01C318920442494C
:10207000DC33920C1B680A809847AFE70C2421429E
:102080003DD0082759015218FF32147A3C421ED025
:102090001772384A063F5218917E394202D0917E1B
:1020A000B9439176802252421543334A9571009A82
:1020B000540102681419E279920700D58EE70C22C8
:1020C000164200D18AE71B01C318D833B4E70427AE
:1020D000147A3C42F3D01772264A023F5218917A82
:1020E000394202D0917AB9439172234A9571009A8C
:1020F000540102681419E279D207E0D56EE7890726
:102100002CD002215C011219FF32177A0F4213D032
:1021100011728022524218491543164A8D711419C2
:1021200062699204920C4A80B20700D156E70D33DF
:102130001B01C3185B6880E70127117A3942F3D08D
:1021400017720D490B4A8D71141962689204920C32
:102150000A8062681201920C8A80E5E70133013738
:10216000082B00D03EE739E700070020EC330000E1
:1021700004070020C80900200807002000220123CE
:10218000027043708270C370704700000023F7B57F
:1021900004001700614A0D001360614A216010605D
:1021A0002022604901AEC8690243CA6101227370EE
:1021B000F37006333370310018205B4BB2709847D0
:1021C0000623310033701920574B98476A46BB7875
:1021D000694613700620554B9847554B0620984783
:1021E00001222B7813432B70AB78DB07FCD41F2123
:1021F000504A13685B0B0B408B4200D10523288D9E
:102200004D4E0B409B01304003432B8513689B0CC4
:102210000B401F2B00D1023B1F20298D034081431F
:102220000B4307212B851368DB0D0B408B4200D13C
:1022300003232A8D0B4041491B030A407F2113438E
:102240002B852B783A780B40D20113432B707A7888
:102250002B787E390A40033192008B433848134370
:102260002B706862FB78012B4FD1226808311389EB
:102270008B431381802200215200324B9847220069
:102280000021231D243202C39342FCD121000022ED
:10229000A4311A605A609A60DA6010338B42F8D128
:1022A0001A7023002100A5331A7000220133AE31C9
:1022B0001A701A7201338B42FAD1230022000021D6
:1022C000B833D43202C39342FCD1210000225531ED
:1022D000FF311A605A609A60DA6010339942F8D17F
:1022E000AA235B00E2520233E25223000022593358
:1022F0006134FF33FF341A701A7201339C42FAD1F1
:102300008022114B00201A60FEBD002BB2D10C259B
:1023100022681389AB4319431181ABE710070020F2
:102320000007002000040040C1280000E927000049
:1023300035280000246080003FF8FFFFFF8FFFFF7B
:10234000C8090020D733000000E100E0094B1968FC
:1023500000290BD1EFF31080074A002805D172B68F
:10236000BFF35F8F05490870012111701A680132AF
:102370001A6070471407002018070020140100207D
:10238000084B1A68013A1A601B68002B09D1064BEA
:102390001B78002B05D00122044B1A70BFF35F8F0E
:1023A00062B67047140700201807002014010020AF
:1023B000F7B50023012501AC124F210011206570F3
:1023C000A3702570B84780230F4E9B02B361210094
:1023D00011202570B84780239B02B3612100232080
:1023E0002570B84708239836336021001B202570DC
:1023F000B84708233360002321000F206570237045
:10240000B847F7BD0D2400000044004107B5802205
:1024100001AB1A700A785A704A789A708A78190053
:10242000DA70014B984707BDC128000002230B4A10
:1024300011680B431360802311689943084B89B2DC
:1024400099841021D8680842FCD091680020D96294
:1024500051689962126892B29A8470471C070020F2
:102460000008004070B58478027845780120402645
:102470000540204080240849AD010B6AC001B343E8
:102480002B43A343034303200240044812020340AA
:1024900013430B6270BDC04600080040FFFCFFFF05
:1024A00010B5027A438992069B059B0D120C1A43C4
:1024B000134B5A6081884288C4790A438179214349
:1024C0000A4341780478C9010A431A60042C0DD1EB
:1024D000027B018A92060A43C1890A480904014025
:1024E0000A439A601A6814431C6010BD202CFCD16A
:1024F000028A9A6084221968D2000A431A60F4E7BB
:102500001C0700200000FF0310B5082806D800F0C3
:10251000A1FD1405050C0E1A07202300172010BD7D
:102520000223104A116A0B4313620020F7E70223CB
:102530000C4A91690B439361F7E70223094A118A18
:102540000B431382F1E70223064A918A0B439382DD
:10255000EBE7054B9847E2E70223044A11780B4367
:102560001370E2E7000800402D24000044080040FA
:10257000C2231E22F0B5334DDB003349AB604B68FC
:102580008BB093431A00042313434B600023202293
:1025900005A8438083714370073303733833C381C5
:1025A0002A4B02701A68920E3F2A00D1203A284B1B
:1025B00028491B689B059B0D8B4200D1264B43810C
:1025C0000823C371F8338380244B02720382244BA7
:1025D00098470123002601A88370224B467006709D
:1025E0009847214B06209847204B9847032302AC7D
:1025F0002100237002201D331D4F63606670267218
:102600006672B84702201B4EB0471B4B98471023F9
:10261000EA681A42FCD08023AA8C21001343AB84C1
:102620000025164B07221D725D729D720123280042
:1026300063602270237265706572B8472800B047E6
:102640000BB0F0BD00080040004000412460800055
:1026500028608000FF030000FF01000080BBFFFF37
:10266000A124000065240000092500008D2600003B
:10267000AD260000512700002D240000000400407A
:10268000014B5878C0097047000C00400823054AE8
:1026900091690B4393610123034A13701178194226
:1026A000FCD1704700040040000C0040F8B50C78E5
:1026B0004B782402060005000443002B02D080233F
:1026C000DB021C434B7A002B02D080231B031C43EC
:1026D0004B68012B12D95D1E1D400222002D06D031
:1026E0001D02802335439B0207E0013552009A42C8
:1026F000FBD380232D0235435B031C430B7A002B55
:1027000002D080239B031C430C4FB8470028FBD109
:102710000B4B98470B4B1E70B8470028FCD10A4B57
:102720009D601D00B8470028FCD180226B685202D2
:1027300013401C436C60054B9847F8BD8126000090
:102740004D230000080C0040000C004081230000D5
:1027500070B50500094CA0470028FBD1084B9847ED
:10276000084B1D70A0470028FCD18023064A5B025D
:1027700051680B435360054B984770BD812600009C
:102780004D230000040C0040000C00408123000099
:1027900010B504000E4B98470E4B0F4A1C700F4BA0
:1027A0000F4C588859880005114059805988000FEE
:1027B0002140598011008022D2015C881442FCD152
:1027C0005A8800020A4002435A80064B984710BDBF
:1027D0004D230000020C0040FFF0FFFF000C004002
:1027E000FFBFFFFF8123000010B50C78034B2402CC
:1027F00004439847024BA4B25C8010BD91270000AF
:10280000000C004010B50400064B9847064B074AE1
:102810001C7080235188DB010B435380044B984785
:1028200010BDC0464D230000020C0040000C0040CB
:102830008123000010B5014B984710BD052800000A
:10284000002330B5D4789C4217D11478802C03D063
:10285000802324065B02234302255478AC4306D12F
:102860009478002C24D18024A4022343416054781E
:10287000013C012C01D8114C2340A0248DB2E40569
:102880002C431C438462D0240D0C24062C431C438F
:102890008462D478002C0AD15B0303D59378012B92
:1028A00009D181615378013B012B00D8816030BD93
:1028B000C024E402D9E74161F4E7C046FFFFFBFF13
:1028C00010B503000A004409C1090020814202D169
:1028D0000449E00140181F210B401E399940024B6A
:1028E000984710BD00440041412800007047000097
:1028F00010B5044B9847044B9847044B9847044B3A
:10290000984710BD71250000B1230000ED2800009C
:10291000ED280000FEE700000F48104970B588421E
:1029200004D000230E4CCA18A2420ED300210D4B36
:102930000D4A93420DD37F210C4B0D4A8B4393607C
:102940000C4B98470C4B9847FEE7C558043315606D
:10295000E9E702C3EDE7C046203400000000002094
:102960001C0100201C010020000C002000000000C1
:1029700000ED00E07D330000892F000010B51C4BF6
:102980001A6802321A60FA2219685201914224D957
:1029900008201849184A0B68D0679A7A52B2002A60
:1029A000FBDB02201A8882431A8080220B680821F0
:1029B0001A72C023114A5B00D150114B984772B66E
:1029C000BFF35F8F00220F4B1A70BFF34F8F0E4A79
:1029D0000E4BDA60BFF34F8FFEE7186832210C4BC5
:1029E0009847002903D180220A4B9202DA6110BD78
:1029F00038070020C80A002004E100E000E100E000
:102A00009D080000140100200400FA0500ED00E01C
:102A10009D310000004400410822074B10B51A60A8
:102A2000064B98470028FBD00822054B00201A606F
:102A3000044B9847C0B210BD9844004149050000BE
:102A4000944400415905000070B580240500064EED
:102A50002405B461054B98470028FBD07461280019
:102A6000034B984770BDC046004400415906000022
:102A7000E106000010B50C4B0C4A196891420ED8C3
:102A800010BD1A68824314801A6802321A601A68EC
:102A90000A42F6D1064A137DDB07FCD5F0E7012494
:102AA000FF2101206442F2E718010020FF3F0000EF
:102AB0000040004100231A0010B59CB2A04201D88A
:102AC000100010BDCC5C01336240F6E7F0B5C9B030
:102AD0006B46994A5079187001381C2800D923E1B7
:102AE00000F0CCFA1D0097006300220122018A0049
:102AF00022012201220122012201220122012201BE
:102B0000220197008200B600CC00EC0022012201D5
:102B10002201220122012201550022019B006A4666
:102B200000230B245370083393703933D37015335B
:102B30001371043B5371093B93710A33D371033B07
:102B400013720F3353722D3B93727C4E1B20B04790
:102B50007B4B270A1D782800B047F8B2B0471B23EB
:102B6000E0B25D40B0470E2065407D40EDB245408B
:102B70000027B047BBB29C4200D9D7E06946714BF1
:102B8000200098476840C0B2B04749B0F0BD00216E
:102B90006B4659700223527A04249B1A6A4ADB005E
:102BA0001A416B469A70D970CFE793796946002233
:102BB0004A70902B13D005D8802B09D0812B0CD0D4
:102BC000002306E0912B0DD0922BF9D1052300E0D4
:102BD00001236A4603249370B7E70223F9E703242D
:102BE0008C70B2E70423F4E700236A465370574A17
:102BF000574B1A600224A8E79379D1791B06090480
:102C00000B43517A127A0B4312021343514A5B0071
:102C1000136000236A465370ECE7517A0023302991
:102C20000FD16846C170D17A0222521A4649D200A9
:102C300011416A4643708370037141719371072497
:102C400083E76A4653709370D17013715371F5E73F
:102C50008022202580204049404B0C88D201FF353E
:102C6000C002197D198B294319839108013249004B
:102C7000FF32D9611C808242F3D1CAE79179D379BE
:102C8000344D09025B18286835499BB2884203D944
:102C900000210126994205D32A689B182B60314BED
:102CA0009847B6E75418277C2868E47B3F02081849
:102CB000E419B043A4B204800231EBE79379D279EE
:102CC0001B029B18684600224270224899B206688F
:102CD000234DCC1CA4B2AE420DD9030001268A427A
:102CE00011D31C4A1368C9182300116000226B44D9
:102CF000013B1A7029E7FF209A42F2D015006D447B
:102D0000A8700132F8E76F461868951C1018B04398
:102D100000887855186812182800B2431288684451
:102D2000120A42702A00DAE700240EE76B46D85DEB
:102D3000B04701371EE7C046E00A0020492A0000DC
:102D400036070020B52A000001981E004C1D000027
:102D50003807002018010020FE3300000040004129
:102D6000FF3F0000752A0000F8B500273C003D0039
:102D70001F4B98471F49060008550134062DF7D808
:102D8000280000F067F904080C11171C23001B2E03
:102D900028D10125ECE7184B02251E70E8E7174BF8
:102DA00036021E800325E3E7144A042513881E43D8
:102DB0001680DDE70E2E17D100270525D8E70F4B2B
:102DC00001371B889F42D3D10625D1E7013CA0B231
:102DD0000B4B98470024864207D10A4B1C600A4BD4
:102DE0009847F8BD0024C3E700242500C0E7C0468B
:102DF000192A0000E00A00203607002034070020CE
:102E0000B52A000038070020CD2A00000423094A13
:102E1000D1690B43D3612022074BFF32198B0A4340
:102E20001A831A7DD20703D51E215A680A405A60B8
:102E30007047C04600040040004000417FB50023B9
:102E40006A46164CD3701380937002930393013338
:102E500013711349134B200098470823124D226821
:102E60002B6021688B7A5BB2002BFBDB0226138878
:102E70000E4933431380200032000D4B9847310038
:102E800020000C4B9847012120000B4B9847C02293
:102E90009200AB581B021B0AAB507FBDC80A002032
:102EA00000140040390D000000E100E07D29000021
:102EB000310E0000650E00000D0E0000F7B5274B27
:102EC0009847274A01211300107D0842FCD068462C
:102ED0006D46244C2188018023490988418023487C
:102EE0000188A98022490988E9800725009929409D
:102EF000012930D0118BC9052FD480212026556897
:102F0000C90229435160118BFF3631431183194F98
:102F10001949D161178032001F3EFF3E1F7D3742A5
:102F2000FCD01E8B16431E83144ED9611E800126D1
:102F30001F7D3742FCD01F8B3A431A830722D96189
:102F400000994A4032430092009A2260019A02603E
:102F50000B4A1A805D600B4B9847F7BD4D2300006C
:102F6000004000410040800002408000044080009A
:102F70000640800005A5FFFF0020400044A5FFFF9C
:102F800006A5FFFF812300008022224B920210B58C
:102F90009A61802212059A6108221F4B1A601F4B0A
:102FA0001A7852B2002A03DB02211A788A431A7077
:102FB0001B4B1A78D20610D41B789B060DD48023A5
:102FC000DB011988174A914207D01A6882F30888F2
:102FD000154A9360154B1B6898470122144B1A70D1
:102FE000BFF35F8F62B6134B9847134B9847134B51
:102FF0009847134B9847C1218022124889004358B3
:10300000D2051B021B0A134343500F4B98470F4B2B
:10301000FCE7C046004400419844004100100040D5
:1030200038040040FFFF000000ED00E00440000015
:1030300014010020F12800003D2E00000D2E00009C
:103040005108000000E100E0BD2E0000692D0000E5
:103050007047000002B4714649084900095C490004
:103060008E4402BC7047C04603B471464908400014
:103070004900095E49008E4403BC704703B47146A1
:10308000490840004900095A49008E4403BC704772
:10309000002243088B4274D303098B425FD3030A97
:1030A0008B4244D3030B8B4228D3030C8B420DD3AA
:1030B000FF22090212BA030C8B4202D31212090238
:1030C00065D0030B8B4219D300E0090AC30B8B4276
:1030D00001D3CB03C01A5241830B8B4201D38B0324
:1030E000C01A5241430B8B4201D34B03C01A5241C9
:1030F000030B8B4201D30B03C01A5241C30A8B420C
:1031000001D3CB02C01A5241830A8B4201D38B02F6
:10311000C01A5241430A8B4201D34B02C01A52419A
:10312000030A8B4201D30B02C01A5241CDD2C3090C
:103130008B4201D3CB01C01A524183098B4201D388
:103140008B01C01A524143098B4201D34B01C01A73
:10315000524103098B4201D30B01C01A5241C308EB
:103160008B4201D3CB00C01A524183088B4201D35A
:103170008B00C01A524143088B4201D34B00C01A46
:103180005241411A00D20146524110467047FFE7B2
:1031900001B5002000F0F0F802BDC0460029F7D0CC
:1031A00076E7704703460B437FD4002243088B42E7
:1031B00074D303098B425FD3030A8B4244D3030BBE
:1031C0008B4228D3030C8B420DD3FF22090212BA83
:1031D000030C8B4202D31212090265D0030B8B42FF
:1031E00019D300E0090AC30B8B4201D3CB03C01AE9
:1031F0005241830B8B4201D38B03C01A5241430BC4
:103200008B4201D34B03C01A5241030B8B4201D3B3
:103210000B03C01A5241C30A8B4201D3CB02C01A1E
:103220005241830A8B4201D38B02C01A5241430A96
:103230008B4201D34B02C01A5241030A8B4201D385
:103240000B02C01A5241CDD2C3098B4201D3CB012C
:10325000C01A524183098B4201D38B01C01A5241DB
:1032600043098B4201D34B01C01A524103098B42DF
:1032700001D30B01C01A5241C3088B4201D3CB00CA
:10328000C01A524183088B4201D38B00C01A5241AD
:1032900043088B4201D34B00C01A5241411A00D25D
:1032A00001465241104670475DE0CA0F00D04942C6
:1032B000031000D34042534000229C4603098B4236
:1032C0002DD3030A8B4212D3FC22890112BA030ABE
:1032D0008B420CD3890192118B4208D38901921140
:1032E0008B4204D389013AD0921100E08909C309C5
:1032F0008B4201D3CB01C01A524183098B4201D3C7
:103300008B01C01A524143098B4201D34B01C01AB1
:10331000524103098B4201D30B01C01A5241C30829
:103320008B4201D3CB00C01A524183088B4201D398
:103330008B00C01A5241D9D243088B4201D34B00B3
:10334000C01A5241411A00D20146634652415B10F5
:10335000104601D34042002B00D5494270476346D6
:103360005B1000D3404201B5002000F005F802BD1B
:103370000029F8D016E770477047C04670B50026A0
:103380000C4D0D4C641BA410A64209D1002600F080
:1033900037F80A4D0A4C641BA410A64205D170BD33
:1033A000B300EB5898470136EEE7B300EB58984767
:1033B0000136F2E70C3400000C3400000C3400003D
:1033C00010340000002310B59A4200D110BDCC5C2F
:1033D000C4540133F8E703008218934200D17047C8
:1033E00019700133F9E7303034450000040008005B
:1033F00070008000010000010002030C106002A5B3
:10340000F8B5C046F8BC08BC9E467047D90000001D
:10341000F8B5C046F8BC08BC9E467047B100000035
:10342000610100002D010000E10100005D010000CC
:1034300000000000690400003D0100005901000087
:103440005D010000510300000003000000000000C7
:10345000000000000000000000000000000000006C
:10346000000000000000000000000000000000005C
:10347000000000000000000000000000000000004C
:10348000000000000403090441726475696E6F2036
:1034900073726C20287777772E41726475696E6F2E
:1034A0002E6F7267290041726475696E6F204D300E
:1034B00000000000EC000020A0000020000100201F
:1034C000A80000200C01002009024300020100C0F6
:1034D0003209040000010202010005240010010469
:1034E00024020205240600010524010301070583C7
:1034F0000340001009040100020A000000070581D2
:103500000240000007050202400000001201010213
:1035100002000040032A4E000001010203010000E6
:10352000050F0C000107100202000000000000203F
:0C3530001400002001000000004000001A
:1040000000800020454200002D4200002D420000AB
:1040100000000000000000000000000000000000A0
:104020000000000000000000000000002D42000021
:1040300000000000000000002D4200009942000036
:104040002D4200002D4200002D4200002D420000B4
:104050002D4200002D4200002D42000031420000A0
:104060002D420000794100002D4200002D42000049
:104070002D4200002D420000894100002D42000029
:104080002D4200002D4200002D4200002D42000074
:10409000000000002D4200002D4200002D420000D3
:1040A0002D4200002D4200002D4200002D42000054
:1040B0000000000010B5064C2378002B07D1054BFB
:1040C000002B02D0044800E000BF0123237010BD84
:1040D00000010020000000002466000008B5084B25
:1040E000002B03D00748084900E000BF07480368D9
:1040F000002B03D0064B002B00D0984708BDC046CC
:10410000000000002466000004010020FC000020E4
:104110000000000008B52B20012100F045FAE12144
:104120000248490200F088FD08BDC0460002002098
:1041300010B50E4C0E49201C00F044FB0D4B201C0A
:1041400019684A1C1A600A2200F093FB01212B20F7
:1041500000F084FA642000F0ADF800212B2000F07C
:104160007DFA642000F0A6F810BDC04600020020D1
:10417000986000001C01002008B5024801F01EFDF7
:1041800008BDC0468001002008B5024801F016FDB8
:1041900008BDC04620010020F7B5164F1649381C4F
:1041A00000F0BAFB1549164800F0B6FB1549164851
:1041B00000F0B2FB1549164800F0AEFB1549164851
:1041C00000F0AAFB154D03260124281C144900F019
:1041D000A3FB391C0096231C01940022114801F016
:1041E000C9FC0096291C0194242223230E4801F0C7
:1041F000C1FCF7BDE401002000080042000C0042B1
:10420000E801002000100042EC01002000140042F0
:10421000E001002000180042F0010020F40100201D
:10422000001C00428001002020010020FEE7000069
:1042300008B5034B1B68002B00D0984708BDC0464B
:10424000F801002038B50F490F4CA14204D100F00D
:104250004FF801F03DFD0BE00C4D8D42F7D00023EF
:10426000CA18E818A24204D2006804331060F7E7C5
:10427000FEE79042EBD0064B064A9342E7D200227B
:1042800004C3F9E7000000200001002028660000B8
:1042900000010020F007002008B500F026F80028F3
:1042A00001D100F017F808BD014B18607047C046F7
:1042B000F801002070B5041E08D0054B1D681E1CB7
:1042C00000F012F833685B1BA342F9D370BDC046FF
:1042D000FC01002008B5034B1A6801321A6000F097
:1042E000E1FA08BDFC010020704700207047000083
:1042F00070B54A4A1E21536802208B430343484944
:1043000053608B69082423438B61464C464B9C8247
:104310009C8A20439882101CDA689407FCD5434A93
:10432000012414701478E50704D5404C647864B215
:10433000002CF7DB01249460547864B2002CFBDB82
:104340003B4D3A4C6560547864B2002CFBDB82250F
:10435000364CED016580547864B2002CFBDB9C8CFC
:104360008025AC439C84DC68E606FCD5314D2E4CA0
:10437000E562DD682C4CEE06FBD5A58C2E4E354350
:10438000A584DD68284CEE06FBD5A58C02263543B6
:10439000A584DC682506FCD5234CE4686606F8D5C0
:1043A000DC68E506FCD500249460547864B2002CE7
:1043B000FBDB224D1D4C656055781C4C6DB2002D09
:1043C000FADB1E6A1E4D35401D621D6A8026B5430C
:1043D0001D620323A3601B4B636053785BB2002B09
:1043E000FBDB00230B72184A4B728B72CB72174B9C
:1043F000FF211A60164B174A1B6812685C01D20E27
:10440000214011439A06520F12020B1C1343124A09
:104410001385436880221343436070BD0040004110
:10442000000400400C06000000080040000C0040A2
:1044300001050100B805FF7D040A00000007030024
:10444000FFFCFFFF03060100006CDC0200000020FF
:10445000246080002060800000400042314BFA213F
:10446000186810B5890001F0F1FC2F4B0138984213
:1044700024D82E4A2E4B5060186AC0210002000A30
:104480000906014319620024072194601160196A2A
:1044900080220902090A12060A431A62254BFC21EE
:1044A0001A6A0A431A62196AFC2292010A431A62C2
:1044B000196AA022D2020A431A6200E0FEE7201C19
:1044C0000021013400F070F8182CF8D11A4C6378F0
:1044D0005BB2002BFADB194B6380194B5A7ED20971
:1044E000012AFAD0E422D2009A803F22DA70597E63
:1044F000134AC9090129FAD0C0235B0100201361C6
:10450000907000F023F863785BB2002BFBDB0D4A60
:10451000094B5A800C4BDA79D209012AFAD0412290
:104520005A7010BD00000020FFFFFF0010E000E007
:1045300000ED00E000040040000C00401E400000C0
:1045400000400042214000000048004200B5144AEB
:10455000517E131CC9090129F9D00138042813D848
:104560001969104A0A401A615A780F218A4301F0EA
:1045700063FC030509070300012102E0032100E0B9
:1045800002210A435A700AE01169F0231B050B430C
:10459000136153780F218B4302210B43537000BDED
:1045A00000400042FFFFFFF010B51824021C201C41
:1045B0005043274B1818007A40B2013046D00329E7
:1045C00044D8081C211C01F037FC0233112162433E
:1045D00098569A18C3011F4852681B189918403101
:1045E000022008700121914059602FE062439856E3
:1045F00018499A185268C3015B189918403106206F
:10460000087001219140596099611FE051435A5649
:10461000104859184B68D2011118C81840300624A8
:1046200004700120984048600B49521850600DE01A
:10463000624398569A18C301064852681B18991885
:1046400040310220087001219140996010BDC046A0
:10465000B860000000440041104400411823584352
:10466000134AF0B5131808241C5701341FD0825682
:10467000104ED2015D6801249019231C8668AB405E
:104680001E420BD10E1C771EBE41401934404030F3
:10469000A50004780426B4432C430470002903D1F8
:1046A00005495218536002E0024E92199361F0BD21
:1046B000B860000000440041104400411822424309
:1046C000F8B52D4D0824AA181457031C621C50D0AD
:1046D000481C00240C284CD801F0AEFB071E1E1EFF
:1046E0001E1E1E1E1E0A0A0A0A000124644240E021
:1046F000092902D1181C002103E00A2904D1181C41
:104700000221FFF751FF23E000240B2931D1181CAF
:104710000121FFF749FF2CE018225343EA185268A1
:10472000EB560120141C04405508DB01002C11D06D
:10473000124C1B195D1930352E780C010F213140B8
:1047400021439A18C9B22970403213781843107067
:1047500000240EE0094E0F279B195D1930352E7885
:104760009A18BE433143C9B22970403213781843B6
:104770001070201CF8BDC046B86000000044004125
:10478000F7B58A18061C0D1C01920C1C019B671BB7
:104790009C4207D0336821781B68301C984701344D
:1047A0000028F3D1381CFEBD38B5051C0C1C081EB2
:1047B00007D001F043FC2B68021C5B68281C211CFD
:1047C000984738BD08B5FFF7EFFF08BD08B5036887
:1047D0001B68984708BD000008B50249FFF7E4FFD1
:1047E00008BDC04668650000F0B58DB0161C0BAB67
:1047F000002201900C1C1A70012E00D80A266D466A
:104800002B35201C311C01F065FB201CCFB2311C64
:1048100001F01CFB291C041C092F01D8303700E0D3
:104820003737FFB22F70013D002CEAD10198FFF716
:10483000BBFF0DB0F0BDF8B5041C0D1C161E04D155
:104840000368C9B21B68984712E00A2A0DD10029F3
:104850000ADA2D21FFF7BAFF6942071C321C201C1F
:10486000FFF7C2FFC01903E000E0D2B2FFF7BCFFC0
:10487000F8BD38B5041CFFF7DEFF051C201CFFF750
:10488000ABFF281838BD0000014B18607047C046C8
:1048900004000020024B012252421A607047C046B9
:1048A00004000020154A1368581C25D0013B1360F2
:1048B000002B21D172B6124A124B04329A4207D809
:1048C000BFF34F8F104A114BDA60BFF34F8F11E0E7
:1048D0000F4B197DC807FBD5188B2021FF3192089B
:1048E000520001431983DA610A4A1A801A7DD107FE
:1048F000FCD5E5E7C046FDE77047C0460400002050
:1049000000400000030200000400FA0500ED00E092
:104910000040004102A5FFFF01607047F7B508ACF9
:10492000267804689D1E27686C1EA541ECB292078C
:1049300005683A4327063A432A600268072529405A
:104940005068B501002C00D05C03294301430C439F
:104950005460F7BD30B50368C0251C68AD0312056F
:104960002A402243C024A4020904214011431960B3
:1049700003685A6814435C6030BD036801211A68FB
:104980000A431A600268116801231942FBD1D169F8
:104990001942F8D17047036802211A680A431A6065
:1049A0000268D3699907FCD4704703681A7ED1075F
:1049B00002D41A7E9107FCD57047036800225A83FF
:1049C00070470368187E4007C00F70470368187E61
:1049D000C009704703688022197E52420A431A7642
:1049E00070470368188DC0B2704703681A7E0120B3
:1049F0000242FBD0198570470368224A30B59342C2
:104A000011D0214A934211D0204A934211D0204A1A
:104A1000934211D01F4A934211D01F4A934230D182
:104A20000E2319220DE0092314220AE00A2315227D
:104A300007E00B23162204E00C23172201E00D23CC
:104A40001822DCB2154901209B08A0409B00086099
:104A50005B180320C021890004405D58E000FF245A
:104A60008440A5432C1CC0258540281C2043585059
:104A70008023DB011A430A4B5A805A7852B2002A2B
:104A8000FBDB30BD00080042000C00420010004279
:104A90000014004200180042001C004200E100E047
:104AA000000C0040F8B5041C151C0E1C1F1CFFF761
:104AB000A3FF201CFFF761FFB1001C220A40690719
:104AC0002368090C0A431A60226884239375012E17
:104AD0001AD10821012D00D110210C4B79431868FF
:104AE000C00001F0B3F9236807219A890140D2047C
:104AF0004903D20C0A439A8123680004C20C9889A6
:104B0000400B400310439881F8BDC04600000020D0
:104B10003F20704713B502686B46D971073354685C
:104B2000191C0122A04716BD08B50069022100F03A
:104B300011FC08BD08B50069032100F021FC08BD87
:104B400038B50D1C041C131C006903212A1C00F03D
:104B500007FD002801D10123636038BD10B5054C65
:104B600023685A1C04D10368DB6898472060031C43
:104B7000181C10BD58000020074A08B51368591CBE
:104B800004D0012149421160181C03E00069022190
:104B900000F0D8FC08BDC0465800002008B50378D6
:104BA0000349023303704222024800F083FD08BD2E
:104BB00014000020C706002010B50178031C4278BD
:104BC0000020A12908D1212A2FD1184818490722ED
:104BD00000F070FD012028E0212926D1202A05D1EE
:104BE00013490722114800F011FC04E0222A10D1D9
:104BF0009A780F4BDA710E4B96221968D2009142C7
:104C000010D1DC7901231C400CD1FA20FFF73CFEC7
:104C10000AE0232A09D1DA789B7812021A43054B5D
:104C20001A6002E0FFF736FE002010BDC706002024
:104C3000080000201000002070470000064BFA21F9
:104C400089009960054900220831196004495A60B9
:104C500019611A767047C046000200208065000086
:104C6000C706002070B5C2B219495301CB189E681F
:104C7000184DC0242E40A40526439E60164E800188
:104C800009683018083258605201505C0726B0435A
:104C90000126304350549E6935402C439C610F4C93
:104CA0005C61505C7024A0431024204350549C68E5
:104CB0000B488A1820408024640320439860986839
:104CC0004021800B8003986053790B43537170BD72
:104CD000CC060020FFFFFF8FE804002028030020FF
:104CE000FF3F00F038B5041C08CC01211A78051CE0
:104CF0000A431A708022201C0021520001F02FF973
:104D00002B689A78D107FCD45C6238BD134BF0B5A0
:104D10001B6899035A029B01C90ED20E5B0F1F2913
:104D200000D105211F2A00D11D22072B00D103230A
:104D300004688E01278D0A491F253940314321859A
:104D400001682A400C8DAC4322430A85026819038E
:104D5000108D044B03400B431385F0BD246080008D
:104D60003FF8FFFFFF8FFFFFEFF310830360012386
:104D7000436072B670470368002B02D162B6BFF37E
:104D80006F8F704737B50569041C6846002D12D136
:104D9000FFF7EAFF019B013B03D3621DD57FEDB214
:104DA000F9E768460193FFF7E6FF0020854217D038
:104DB000206AE36913E0FFF7D7FF019B0025013B61
:104DC00004D3221C34321578EDB2F8E7684601931B
:104DD000FFF7D1FF0020854202D0206BE36AC01AA2
:104DE0003EBD0000436810B51A68037A01215B01DB
:104DF000D318FF339A7A0A439A72037A42685B01A6
:104E0000D318C2689C6891040B4A090922400A43DE
:104E10009A60037A42685B01D3189A684021920B2A
:104E200092039A6043681A68037A08335B01D318C7
:104E30001A790A431A7110BDFF3F00F0F7B50569F2
:104E4000041C0E1C171C6846002D1FD1FFF78CFF99
:104E5000019B013B5A1C06D0621DD17F5A1E0029BE
:104E60003AD0131CF6E768460193FFF784FF00254C
:104E7000E369BD4235D0226A934232D25A1CE261C4
:104E8000A269D3181B7873550135F1E7FFF76CFF62
:104E9000019B013B5A1C08D0221C343215785A1E43
:104EA000EDB2002D18D0131CF4E768460193FFF70C
:104EB00062FF0025E36ABD4226D0226B934241D3B4
:104EC00022E0621D0021D17730321678581E8E42C2
:104ED00014D1031C5A1CF4D168460193FFF74BFF11
:104EE00038E0226A934235D10023E3610123236134
:104EF0006846FFF739FF019B013BEBE71170201C6F
:104F00000193FFF76FFFF6E7226B934222D1002354
:104F1000E36223616846FFF727FF019B013B5A1CB0
:104F2000DAD0221C34320021117001321678581E5A
:104F30008E4201D1031CF2E71170201C0193FFF790
:104F400051FFEAE75A1CE262A26AD3181B78735534
:104F50000135AFE7281CFEBD37B54368027A1B68F0
:104F6000083252019A18041CD0790123FF211842FB
:104F700055D0D371A068656962680140002D1FD1CA
:104F80004901521891688904890C2162216A00291B
:104F900042D06361A36A68465360FFF7E5FE019B58
:104FA000013B5D1C34D0621D0120D0772F32117877
:104FB0005D1EC9B21218002915D111702B1CF0E723
:104FC0004B01D3189A689204920C2263226B002A38
:104FD00022D000226261A26968465A60FFF7C4FECF
:104FE000019B013B12E0019310706846FFF7C3FE7E
:104FF00015E0221C343201201070621DD17F5D1E2D
:10500000C9B230320029EED111702B1C5D1CF0D1D9
:1050100068460193FFF7AFFE201CFFF7E3FE37BDA4
:1050200037B500236C46E3710734201C0D1CFFF7D5
:10503000B5FD2B681818286000F0ECFE211C00F06C
:10504000A2FE2B681818286020783EBD03290BD1DA
:105050000D4BB2221B685200985C802149420143EB
:105060009954022168220CE001290CD1064B9222AE
:105070001B685200985C80214942014399540221E7
:105080002822FF3299547047CC06002038B5264BB1
:105090002021DA69051C0A43DA61244B01201A78C1
:1050A000062402431A70224B0F221978914319707B
:1050B0001978214319701F490C782043087019781A
:1050C0000A401A701A7860210A431A701A4B1B4A58
:1050D0005A805A78D209FCD11948FFF7E5F8194CE3
:1050E000201CFFF7FFFD201CFFF710FE23687F2226
:1050F00019780A401A701A7804210A431A701A891A
:105100000C218A431A81C1210F4A8900505800029C
:10511000000A5050802111601A7802210A431A7047
:1051200001232B7038BDC0460004004058440041A4
:105130003C44004159440041000C0040064000003E
:10514000F95A0000CC06002000E100E000780028B9
:1051500010D0094B01211B681A898A431A811A8BC6
:1051600008210A431A831A8B04210A431A83034B2A
:1051700000221A607047C046CC060020D0070020ED
:105180000F4B9A69920B92039A611B680222FF33BC
:105190001A7298798022524202439A711A7A9007C1
:1051A000FCD5084B081C997A7F221040914301439B
:1051B0009972997A802252420A439A727047C04685
:1051C000CC0600200050004110B50B790C1C002BC0
:1051D0000BD1081CFFF7F0FC002804D1094B9A6999
:1051E000920B92039A6101200BE000F013FE211C48
:1051F00000F0FDFD0028F6D1024B9A69920B920354
:105200009A6110BDCC060020F8B50D1C832A16D17A
:10521000CAB242495301CB189C694148AD012040B4
:10522000C024A405204398613E48083245195D61B9
:105230000B685201D15C70208143402065E0022A56
:1052400045D1382000F064FD374B344F8026036091
:1052500076000023421D036203614361C36147601E
:105260008560C660D3772F32041CC362036313705A
:10527000301C537000F060FEA061301C00F05CFE3A
:10528000FF232A1C1A405201A062BF18B968244AA1
:1052900007260A40C02189050A43BA60A1686268EE
:1052A0001940126808314901885CAD00B0430326FB
:1052B00030438854A16862680B405B01A169D31830
:1052C0005960201CFFF78EFD184BEC5025E0822A18
:1052D0001ED1CAB211495301CB189C691048AD01C7
:1052E0002040C024A405204398610E480832451987
:1052F0005D610B68520199180C798020404220436F
:105300000871D15C7020814330200143D15404E006
:10531000002A02D1081CFFF7A5FCF8BDCC0600202E
:10532000FFFFFF8F28030020B0650000A8060020C3
:1053300038B5051C0124064BA200D258002A06D01D
:10534000211C281C0134FFF75FFFE4B2F3E738BDEE
:105350005C00002008B5084B8A00D058002803D014
:1053600003689B68984706E0C9B2044B4901591885
:1053700088688004800C08BDA8060020CC060020A8
:1053800010B50C1CFFF7E6FF00280CD0064BE1B26D
:105390001B680831490159184A7980235B4213433D
:1053A0004B710223CB7110BDCC06002070B5CAB280
:1053B000134B1448540189015918031959609D6809
:1053C0001149083229408025AD0229439960996826
:1053D0004026890B890399600368510159180D799A
:1053E00035430D715101591889794D06FAD551018E
:1053F0005918C979CD07FAD50419A068C0B270BD93
:10540000E8040020CC060020FF3F00F038B50C4B2C
:10541000141C1B680D1CFF335A7940210A435A7132
:105420000021FFF7C3FFA04200D9201C0023A342A4
:1054300004D0044A9A5CEA540133F8E738BDC04608
:10544000CC060020E804002010B5C9B20C48490180
:1054500043189A689204920C3F2A08D9141C9A683F
:10546000403CA404920BA40C9203224302E09A68ED
:10547000920B92039A6041188868C0B210BDC04672
:10548000CC060020F0B51C1C2A4B85B01B68061CFE
:105490000D1C0292002B46D0274B8A00D0580028C2
:1054A00005D0036802995B68221C98473FE0301CD6
:1054B000FFF750FFA04204D2301C291CFFF74AFF1F
:1054C000041C291C301CFFF7BFFF1C4FE9B24A0126
:1054D0000191396803928B18FF335A7A01210A43EC
:1054E00017495A72AB01C9180298221C00F02EFD10
:1054F000002C1BD0301C291CFFF72CFF002815D1D5
:10550000019B3A6808335B01D318197940200143A5
:1055100019710121D97103995318FF339A7A012126
:105520000A439A7202E00120404200E0201C05B0CC
:10553000F0BDC046D0070020A8060020CC06002001
:10554000E804002013B56C460734221C0123FFF742
:1055500099FF012801D1207801E00120404216BDC9
:10556000F0B51C1C3A4B85B01B680E1C0292002B38
:1055700060D08023DB019C425CD800220092002C8A
:1055800056D0344DF7B22B6801933B1C0833019A77
:105590005B01D3189B79DB091AD02F4B2F49186870
:1055A00000F054FC2E4B1721584300F04FFC3B1CDD
:1055B0000833019A5B01D318DB799A0708D4294B89
:1055C0009A5D002A38D1421E002835D0101CEEE723
:1055D000244B00229A55251E3F2D00D93F25224AF3
:1055E000B301D318181C02992A1C039300F0AEFCD7
:1055F000184A7B01D318039AA9045A619A69890C45
:10560000920B92030A439A613B1C019A08335B0197
:10561000D3180222DA715979802252420A435A7110
:10562000009B029A5B1952190093641B0292A6E731
:1056300000980BE0012008E001229A557B01ED184B
:10564000AB69101C9B0B9B03AB61404205B0F0BDE6
:10565000D0070020CC0600200000002040420F00B0
:1056600070110100200300202803002070B50E4DAA
:105670001C1C8B01ED18281C0E1C111C221C00F098
:1056800065FCF6B20949760189194D618A69084BB2
:10569000201C13408B618B69A2049B0B920C9B0313
:1056A00013438B6170BDC04628030020CC06002048
:1056B000FF3F00F0F7B5114B01901B780F1C141C35
:1056C000002B19D10E4B1E78002E01D1151C08E0BD
:1056D0000C4D0D482E888019361900F037FC2E80AD
:1056E0000AE0002D08D0BA192B1C01980021FFF701
:1056F000BDFF36182D1AF4E7201CFEBDC60600209B
:10570000C40600201E0300201D020020F8B50E1C58
:1057100000AF151E012D28D9D31DDB08DB006A461A
:10572000D21A9546081C00F089FC01306C464000F6
:105730000323207063700222AA420ED23378002B1A
:105740000BD0511CC9B20136A354A94204D0002386
:1057500002326354D2B2EFE72A1C0548211CFFF73E
:10576000A9FF431E9841C0B200E00020BD46F8BD2D
:10577000C706002008B5044B00221A70034B0449E9
:105780001A88FFF797FF08BDC40600201E030020FB
:105790001D020020F0B5204A87B0012300260091A9
:1057A00002A91370051C0296FFF73AFC03AC092707
:1057B00001903A1C201C311C00F0D1FB02236370C5
:1057C000A023E371FA232372029B0122DB19638079
:1057D000019B62712371104A009B27701670BB42B7
:1057E00005D1281C211C1A1CFFF764FF11E00B4B8C
:1057F00001221A700A4B211C3A1C281C1E8002969A
:10580000FFF758FF281C02A9FFF70AFC281CFFF726
:10581000B1FF012007B0F0BDC6060020C40600207D
:105820001E03002070B5CE788AB0051C0C1C022E19
:1058300008D1C9882348FFF7ADFF031C581E8341D8
:10584000D8B23DE000F0E6FA211C00F0B1FA0028E1
:1058500003D0C3171B1AD80F32E0012E04D1E288FF
:105860001949112A27D823E0032E29D1A278002A2A
:1058700005D11649E2880B78934219D81BE0022A19
:1058800003D1A279281C124904E0012A05D1A2798A
:105890001049281CFFF73AFF12E0032A10D100F04C
:1058A000B9FA01A900F094FAA279281C01A9F1E73C
:1058B000D2B2002A00D10A78281CFFF7FBFE012093
:1058C0000AB070BDC7060020CC650000C8650000A6
:1058D000DE650000C065000073B5051C48780C1C2F
:1058E0000B2878D800F0A8FA081C7728773E4306E2
:1058F000474B686F00206FE0097801AA002903D1A7
:1059000011705170281C09E0002313705370334B41
:105910001B78012B00D11370281C002102234FE0BB
:105920008A780023012A04D101AA137053702C4BEA
:10593000EEE72A4A137049E08E78012E07D1284BF2
:1059400001AA00211E701170281C331C38E0002EA3
:1059500008D1224A01231370224A9169890B8903D5
:10596000916138E0A178281CFFF70AFC33E0281C7D
:10597000FFF758FF30E0281C00211B4A1FE00A787F
:105980000020D30628D1281CFFF7D2FCA2781549A5
:10599000154B02241A600A682A23FF33D05C204387
:1059A000D0544A20FF30145C01231C4314548A69EC
:1059B000920B92038A610EE00C4A281C00210123FD
:1059C000FFF754FE07E08A78084B1A60054B9A6986
:1059D000920B92039A61012076BDC0461C02002002
:1059E000C5060020CC060020D0070020C8060020F5
:1059F000F8B53B4B071C1C78002C6FD1394D28683B
:105A0000838B19070DD5201CFFF72CF92B6810206C
:105A10001A1CFF32917A01439172334A14600822B2
:105A20009A832B689A8B500701D504229A83FF33FF
:105A30001A7AD10626D510221A725A7940210A43C1
:105A40002A495A710A786023381C1A4202D1FFF79A
:105A500043FF01E0FFF7B8FB002806D02B68802247
:105A6000FF33997952420A4301E0214B20229A7177
:105A70002B68FF331A7A500604D540221A72597ADD
:105A80000A435A722968FE230E8C00241E40E1B29C
:105A9000002E23D0321C012322411A4216D0221C90
:105AA0002868083252018218D079184203D1D2797D
:105AB000DA401A4207D00F4BA200D058002809D074
:105AC00003681B6898470123A3409E430134092CB7
:105AD000DDD103E0381CFFF7B9FAF4E7F8BDC046A2
:105AE000C4060020CC060020D0070020E8040020D7
:105AF000FF500041A806002008B50248FFF778FFD4
:105B000008BDC046C7060020014A024B1A60704714
:105B100000500041CC0600200120704708B5036802
:105B2000014ADB69984708BD1304000010B5041C46
:105B30000069FEF722FF201C143000F003F910BDAD
:105B400008B50069FEF731FF08BD08B5143000F054
:105B50000BF908BD08B5143000F00CF908BD08B504
:105B6000143000F0F3F808BD08B50069FEF73DFFFA
:105B7000012008BDF7B51D1C08AB1B78041C009361
:105B800009AB1B78161C019300234360FA239B008A
:105B90008360094B0F1C08330360143000F0BCF81D
:105BA000009A231C5C3327619A70019A1E705D7005
:105BB000201CDA70FEBDC046F065000010B5041C64
:105BC0000069FEF7FEFE002807D02069FEF709FFF6
:105BD000011C201C143000F0AAF82069FEF7F6FE24
:105BE000002805D02069FEF7F5FE2069FEF7E5FEE6
:105BF00010BDF023081C184030384342584170470C
:105C0000F0231B01194080239B0099420CD0C02334
:105C10009B00994206D080235B000520994204D066
:105C2000002002E0072000E0062070470F23194003
:105C3000012905D002394B424B410220C01A00E035
:105C400000207047F0B5031C85B003915C33041C41
:105C5000182718783B1C43431B4E0821F31859564C
:105C6000151CFEF72BFD231C5D33187808214743D4
:105C7000F6197156FEF722FD01210A1C039B2069CB
:105C8000FEF710FF291C201CFFF7BAFF291C071C78
:105C9000201CFFF7CBFF291C061C201CFFF7A9FFC7
:105CA000391C0090331C20690122FEF737FE231CAB
:105CB0005F331978013B1A782069FEF74BFE2069A3
:105CC000FEF769FE05B0F0BDB86000007047000047
:105CD00010B5FEF7C3FB00F009F9FFF7F7FF01204D
:105CE000FEF7E8FA084C201CFFF7D0F9201CFFF75C
:105CF0002DFAFEF70FFAFEF71BFA044B002BFAD031
:105D000000E000BFF7E7C046C70600200000000023
:105D100008B500F011F908BD10B500214022041C9F
:105D200000F01DF90023201C2364636410BD026C85
:105D300010B53F23541C2340446CA34201D081542E
:105D4000036410BD0023036443647047436C026C1A
:105D5000934206D0C25C3F2101330B404364101CC8
:105D600001E0012040427047026C436CD01A00D51C
:105D700040307047436C026C934201D0C05C01E03C
:105D800001204042704770B544680E1C0025002C6D
:105D900009D02368201C5B68311C9847002804DB6D
:105DA0002D18E468F3E7281C01E00120404270BD93
:105DB00038B544680D1C002C08D02368201C9B6853
:105DC000291C9847002802D1E468F4E7201C38BD5C
:105DD00038B544680D1C002C07D02368201C291CF2
:105DE000DB689847E4682D18F5E72C7038BD38B5A6
:105DF00044680D1C002C08D02368201C1B68291C3B
:105E00009847002803D1E468F4E7201C00E0012053
:105E100038BD0000064B0122196810B51140054835
:105E200005D1022404700424447041601A6010BD3E
:105E3000DC070020D407002002B47146490849005D
:105E4000095C49008E4402BC7047C046002934D02A
:105E50000123002210B488422CD301242407A1423C
:105E600004D2814202D209011B01F8E7E400A142F9
:105E700004D2814202D249005B00F8E7884201D394
:105E8000401A1A434C08A04202D3001B5C0822436C
:105E90008C08A04202D3001B9C082243CC08A042DD
:105EA00002D3001BDC082243002803D01B0901D0C9
:105EB0000909E3E7101C10BC7047002801D000203E
:105EC000C04307B4024802A14018029003BDC04677
:105ED000190000000029F0D003B5FFF7B9FF0EBC90
:105EE0004243891A1847C0467047C04670B50E4BEA
:105EF0000E4D0024ED1AAD101E1CAC4204D0A300C0
:105F0000F35898470134F8E700F0BAF8084B094D08
:105F10000024ED1AAD101E1CAC4204D0A300F358AF
:105F200098470134F8E770BDE8000020E800002041
:105F3000E8000020F800002008B5034B011C186899
:105F400000F016F808BDC046E400002010B500239C
:105F5000934203D0CC5CC4540133F9E710BD031C59
:105F60008218934202D019700133FAE7704700009B
:105F700070B50323CD1C9D430835061C0C2D01D2A2
:105F80000C2501E0002D3FDB8D423DD3204B1C68EA
:105F90001A1C211C002913D00868431B0DD40B2B9D
:105FA00002D90B60CC181EE08C4202D163681360EA
:105FB0001AE0486860600C1C16E00C1C4968E9E7B0
:105FC000144C2068002803D1301C00F025F8206014
:105FD000301C291C00F020F8431C15D0C41C0323DE
:105FE0009C4384420AD12560201C0B300722231DCC
:105FF0009043C31A0BD05A42E25008E0211A301CD9
:1060000000F00AF80130EED10C233360002070BD9F
:10601000E4070020E007002038B5074C0023051CEA
:10602000081C236000F012F8431C03D12368002BE6
:1060300000D02B6038BDC046EC0700200023C25CB6
:106040000133002AFBD1581E70470000094A13682B
:10605000002B0CD018186946884202D81060181C12
:106060007047054B0C2201201A604042F8E7034BB1
:106070001360EFE7E8070020EC070020F00700209E
:10608000F8B5C046F8BC08BC9E467047F8B5C04697
:10609000F8BC08BC9E46704757656C636F6D652001
:1060A000746F2045544147524649445F4432314A57
:1060B0003138412000000000010000000C00000009
:1060C0000200000004000000FF00FFFFFFFF0C00C3
:1060D000010000000D0000000200000004000000AC
:1060E000FF00FFFFFFFF0D00010000000E00000099
:1060F000040000001C000000FF00000000000E0073
:10610000010000000F000000040000001C0000005F
:10611000FF00010001000F00010000000A00000064
:10612000040000001C000000FF00000300030A0040
:10613000010000000B000000040000001C00000033
:10614000FF00010301030B00000000000C00000031
:10615000050000001C000000FF00020002000C000F
:10616000000000000D000000050000001C00000001
:10617000FF00030003000D00000000000E000000FF
:10618000040000001C000000FF00000100010E00E0
:10619000000000000F000000040000001C000000D0
:1061A000FF00010101010F000000000012000000CB
:1061B000040000001C000000FF00000300030200B8
:1061C0000000000010000000040000001C0000009F
:1061D000FF000002000200000000000013000000A9
:1061E000040000001C000000FF0001030103030085
:1061F0000000000011000000040000000C0000007E
:10620000FF000102FFFF0100FF000000000000008E
:10621000FF00000000000000FF00FFFFFFFFFF0085
:106220000000000003000000010000000200000068
:10623000FF00FFFFFFFF030000000000160000004A
:106240000200000004000000FF00FFFFFFFF060047
:106250000000000017000000020000000400000021
:10626000FF00FFFFFFFF0700000000000B00000021
:106270000300000004000000FF00FFFFFFFF0B0011
:10628000FF00000000000000FF0000000000000010
:10629000FF00FFFFFFFFFF000000000009000000FB
:1062A0000300000004000000FF00FFFFFFFF0900E3
:1062B00000000000080000000300000004000000CF
:1062C000FF00FFFFFFFFFF00FF00000000000000D5
:1062D000FF00000000000000FF00FFFFFFFFFF00C5
:1062E000FF00000000000000FF00000000000000B0
:1062F000FF00FFFFFFFFFF000000000002000000A2
:1063000001000000020000000000FFFFFFFF02008C
:106310000100000004000000010000000200000075
:106320000200FFFFFFFF0400010000000500000065
:1063300001000000020000000300FFFFFFFF050056
:106340000100000006000000010000000200000043
:106350000400FFFFFFFF060001000000070000002F
:1063600001000000020000000500FFFFFFFF070022
:106370000100000008000000010000000200000011
:106380000A00FFFFFFFF0800010000001E000000E0
:106390000B00000004000000FF00FFFFFFFF0E00E5
:1063A000010000001F000000040000000C000000BD
:1063B000FF000102FFFF0F000000000018000000B6
:1063C0000600000000000000FF00FFFFFFFF0C00C0
:1063D000000000001900000006000000000000009E
:1063E000FF00FFFFFFFF0D000000000002000000A3
:1063F00001000000020000001400FFFFFFFF020088
:106400000100000003000000010000000200000085
:106410000000FFFFFFFF030001000000020000007A
:1064200001000000020000000000FFFFFFFF02006B
:106430000100000001000000010000000200000057
:106440000000FFFFFFFF010001000000000000004E
:1064500001000000020000000000FFFFFFFF00003D
:10646000010000001F000000040000001C000000EC
:10647000FF00010101010B00010000001E000000EF
:10648000040000001C000000FF00010101010A00DF
:1064900001000000160000000100000002000000E2
:1064A0000000FFFFFFFF06000100000017000000D2
:1064B00001000000020000000000FFFFFFFF0700D6
:1064C000000000001B0000000B00000004000000A2
:1064D000FF00FFFFFFFF0F000000000005000000AD
:1064E0000B00000004000000FF00FFFFFFFF05009D
:1064F00000000000060000000B0000000400000087
:10650000FF00FFFFFFFF0600000000001500000075
:106510000B00000004000000FF00FFFFFFFF05006C
:1065200000000000140000000B0000000400000048
:10653000FF00FFFFFFFF040001000000100000004B
:106540000B00000004000000FF00FFFFFFFF000041
:1065500001000000110000000B000000040000001A
:10656000FF00FFFFFFFF01000D0A006E616E006972
:106570006E66006F7666002E0000000000000000CE
:106580000000000000000000154B0000414B00001F
:10659000294B0000794B00005D4B0000354B00009B
